:100000000C9461000C947E000C947E000C947E0095
:100010000C947E000C947E000C947E000C947E0068
:100020000C947E000C947E000C947E000C947E0058
:100030000C947E000C947E000C947E000C947E0048
:100040000C9425010C947E000C947E000C947E0090
:100050000C947E000C947E000C947E000C947E0028
:100060000C947E000C947E0000000000230026000B
:10007000290000000000240027002A0000000000E2
:10008000250028002B0004040404040404040202D4
:100090000202020203030303030301020408102007
:1000A0004080010204081020010204081020000012
:1000B0000008000201000003040700000000000027
:1000C000000011241FBECFEFD8E0DEBFCDBF11E08E
:1000D000A0E0B1E0ECE0F6E002C005900D92A8309F
:1000E000B107D9F721E0A8E0B1E001C01D92A2312B
:1000F000B207E1F70E946F010C9404030C94000016
:10010000833081F028F4813099F08230A9F008958D
:100110008730A9F08830C9F08430B1F48091800034
:100120008F7D03C0809180008F7780938000089539
:1001300084B58F7784BD089584B58F7DFBCF809182
:10014000B0008F778093B00008958091B0008F7DCC
:10015000F9CF1F93CF93DF93282F30E0F901E255B9
:10016000FF4F8491F901E656FF4FD491F901EA5708
:10017000FF4FC491CC23A9F0162F81110E9480005B
:10018000EC2FF0E0EE0FFF1FE458FF4FA591B49164
:100190008FB7F894EC91111108C0D095DE23DC9351
:1001A0008FBFDF91CF911F910895DE2BF8CFCF93B2
:1001B000DF9390E0FC01E656FF4F24918A579F4F52
:1001C000FC0184918823C9F090E0880F991FFC01FD
:1001D000EE58FF4FA591B491FC01E458FF4FC59133
:1001E000D49161110DC09FB7F8948C912095822312
:1001F0008C938881282328839FBFDF91CF91089516
:10020000623051F49FB7F8943C91822F80958323FC
:100210008C93E8812E2BEFCF8FB7F894EC912E2B97
:100220002C938FBFEACF8E50806480937C008091A6
:100230007A00806480937A0080917A0086FDFCCFFA
:10024000809178009091790008951F920F920FB6D7
:100250000F9211242F933F938F939F93AF93BF934C
:1002600080910E0190910F01A0911001B0911101A8
:1002700030910D0123E0230F2D3758F50196A11D74
:10028000B11D20930D0180930E0190930F01A09357
:100290001001B09311018091090190910A01A09180
:1002A0000B01B0910C010196A11DB11D80930901B4
:1002B00090930A01A0930B01B0930C01BF91AF91F1
:1002C0009F918F913F912F910F900FBE0F901F9094
:1002D000189526E8230F0296A11DB11DD2CFCF930A
:1002E000DF93CDB7DEB72C970FB6F894DEBF0FBE05
:1002F000CDBF789484B5826084BD84B5816084BDAF
:1003000085B5826085BD85B5816085BD80916E00B3
:10031000816080936E0010928100809181008260E4
:100320008093810080918100816080938100809121
:1003300080008160809380008091B1008460809310
:10034000B1008091B00081608093B00080917A000C
:10035000846080937A0080917A00826080937A0032
:1003600080917A00816080937A0080917A00806821
:1003700080937A001092C10061E082E00E94D70071
:1003800060E08EE00E94D70060E08FE00E94D7001E
:1003900060E080E10E94D70060E081E10E94D70028
:1003A00062E084E00E94D70044244A94E3E05E2E99
:1003B000612C712C00E010E0E2EBF0E08491EEE9BA
:1003C000F0E0F491F983EAE8F0E0F491FD83F111B3
:1003D000B2C081E08093080180910801882309F46C
:1003E000A3C08EE00E94130123EF31E0DC010E94E4
:1003F000FD02A30192010E94AD02DA01C90101963A
:10040000A11DB11D89839A83AB83BC83909307019F
:10041000809306018FE00E94130120E137E2DC01A6
:100420000E94FD02A30192010E94AD026901309376
:1004300005012093040180E10E94130120E137E2CD
:10044000DC010E94FD02A30192010E94AD0249015C
:10045000309303012093020181E10E9413012FE0F8
:1004600037E2DC010E94FD02A30192010E94AD026D
:10047000DA01C9010196A11DB11D8D839E83AF8351
:10048000B88790930101809300019A868986880C31
:10049000991C880C991C95E0891A9108160156013F
:1004A000AA0CBB1CAA0CBB1CA5E0AA1AB108E3E06D
:1004B000F0E0FC87EB8761E082E00E94A90089857B
:1004C0009A85029718F0C4010197F1F760E082E085
:1004D0000E94A90092E02916310418F0C501019785
:1004E000F1F7AB85BC851197BC87AB87AB2B19F7B0
:1004F00029813A81220F331FE981FA812E0F3F1F94
:100500008D819E81821B930B9C01CC0CDD1C2C19D0
:100510003D092230310540F0220F331F220F331FD7
:10052000C90105970197F1F70115110509F444CFA9
:100530000E94000041CF81110E9480009D81E92F1F
:10054000F0E0EE0FFF1FE859FF4FA591B4918C9199
:10055000A981A82309F43DCF3FCF052E97FB1EF4B8
:1005600000940E94C40257FD07D00E94CC0207FCF1
:1005700003D04EF40C94C4025095409530952195CB
:100580003F4F4F4F5F4F08959095809570956195BF
:100590007F4F8F4F9F4F0895A1E21A2EAA1BBB1BBE
:1005A000FD010DC0AA1FBB1FEE1FFF1FA217B3073F
:1005B000E407F50720F0A21BB30BE40BF50B661F55
:1005C000771F881F991F1A9469F760957095809519
:1005D00090959B01AC01BD01CF010895A29FB00190
:1005E000B39FC001A39F700D811D1124911DB29F67
:1005F000700D811D1124911D08950E94EE02B7FF18
:0C0600000895821B930B0895F894FFCF1F
:08060C00E803D00732000400EE
:00000001FF
